{
  "contractName": "DBank",
  "abi": [
    {
      "inputs": [
        {
          "internalType": "contract DCBToken",
          "name": "_token",
          "type": "address"
        }
      ],
      "stateMutability": "nonpayable",
      "type": "constructor"
    },
    {
      "anonymous": false,
      "inputs": [
        {
          "indexed": true,
          "internalType": "address",
          "name": "user",
          "type": "address"
        },
        {
          "indexed": false,
          "internalType": "uint256",
          "name": "etherAmount",
          "type": "uint256"
        },
        {
          "indexed": false,
          "internalType": "uint256",
          "name": "depositTime",
          "type": "uint256"
        }
      ],
      "name": "Deposit",
      "type": "event"
    },
    {
      "anonymous": false,
      "inputs": [
        {
          "indexed": true,
          "internalType": "address",
          "name": "user",
          "type": "address"
        },
        {
          "indexed": false,
          "internalType": "address",
          "name": "transferredTo",
          "type": "address"
        },
        {
          "indexed": false,
          "internalType": "uint256",
          "name": "etherAmountTransfered",
          "type": "uint256"
        },
        {
          "indexed": false,
          "internalType": "uint256",
          "name": "interestPayed",
          "type": "uint256"
        },
        {
          "indexed": false,
          "internalType": "uint256",
          "name": "transferredAt",
          "type": "uint256"
        }
      ],
      "name": "Transfer",
      "type": "event"
    },
    {
      "anonymous": false,
      "inputs": [
        {
          "indexed": true,
          "internalType": "address",
          "name": "user",
          "type": "address"
        },
        {
          "indexed": false,
          "internalType": "uint256",
          "name": "etherAmountPayed",
          "type": "uint256"
        },
        {
          "indexed": false,
          "internalType": "uint256",
          "name": "interestPayed",
          "type": "uint256"
        },
        {
          "indexed": false,
          "internalType": "uint256",
          "name": "withdrawalTime",
          "type": "uint256"
        }
      ],
      "name": "Withdraw",
      "type": "event"
    },
    {
      "inputs": [
        {
          "internalType": "address",
          "name": "",
          "type": "address"
        }
      ],
      "name": "depositedAt",
      "outputs": [
        {
          "internalType": "uint256",
          "name": "",
          "type": "uint256"
        }
      ],
      "stateMutability": "view",
      "type": "function",
      "constant": true
    },
    {
      "inputs": [
        {
          "internalType": "address",
          "name": "",
          "type": "address"
        }
      ],
      "name": "depositedEther",
      "outputs": [
        {
          "internalType": "uint256",
          "name": "",
          "type": "uint256"
        }
      ],
      "stateMutability": "view",
      "type": "function",
      "constant": true
    },
    {
      "inputs": [
        {
          "internalType": "address",
          "name": "",
          "type": "address"
        }
      ],
      "name": "interestPaid",
      "outputs": [
        {
          "internalType": "uint256",
          "name": "",
          "type": "uint256"
        }
      ],
      "stateMutability": "view",
      "type": "function",
      "constant": true
    },
    {
      "inputs": [
        {
          "internalType": "address",
          "name": "",
          "type": "address"
        }
      ],
      "name": "isDeposited",
      "outputs": [
        {
          "internalType": "bool",
          "name": "",
          "type": "bool"
        }
      ],
      "stateMutability": "view",
      "type": "function",
      "constant": true
    },
    {
      "inputs": [],
      "name": "deposit",
      "outputs": [],
      "stateMutability": "payable",
      "type": "function",
      "payable": true
    },
    {
      "inputs": [
        {
          "internalType": "uint256",
          "name": "amount",
          "type": "uint256"
        }
      ],
      "name": "withdraw",
      "outputs": [],
      "stateMutability": "nonpayable",
      "type": "function"
    },
    {
      "inputs": [
        {
          "internalType": "address",
          "name": "to",
          "type": "address"
        },
        {
          "internalType": "uint256",
          "name": "amount",
          "type": "uint256"
        }
      ],
      "name": "transferTo",
      "outputs": [],
      "stateMutability": "nonpayable",
      "type": "function"
    }
  ],
  "bytecode": "0x60806040523480156200001157600080fd5b5060405162001634380380620016348339818101604052810190620000379190620000fc565b806000806101000a81548173ffffffffffffffffffffffffffffffffffffffff021916908373ffffffffffffffffffffffffffffffffffffffff160217905550506200012e565b600080fd5b600073ffffffffffffffffffffffffffffffffffffffff82169050919050565b6000620000b08262000083565b9050919050565b6000620000c482620000a3565b9050919050565b620000d681620000b7565b8114620000e257600080fd5b50565b600081519050620000f681620000cb565b92915050565b6000602082840312156200011557620001146200007e565b5b60006200012584828501620000e5565b91505092915050565b6114f6806200013e6000396000f3fe6080604052600436106100705760003560e01c8063482ed2a21161004e578063482ed2a2146101045780634d13036914610141578063737320241461017e578063d0e30db0146101bb57610070565b8063208e5acc146100755780632ccb1b30146100b25780632e1a7d4d146100db575b600080fd5b34801561008157600080fd5b5061009c60048036038101906100979190610fc5565b6101c5565b6040516100a9919061100b565b60405180910390f35b3480156100be57600080fd5b506100d960048036038101906100d49190611052565b6101dd565b005b3480156100e757600080fd5b5061010260048036038101906100fd9190611092565b610651565b005b34801561011057600080fd5b5061012b60048036038101906101269190610fc5565b610b6a565b604051610138919061100b565b60405180910390f35b34801561014d57600080fd5b5061016860048036038101906101639190610fc5565b610b82565b604051610175919061100b565b60405180910390f35b34801561018a57600080fd5b506101a560048036038101906101a09190610fc5565b610b9a565b6040516101b291906110da565b60405180910390f35b6101c3610bba565b005b60026020528060005260406000206000915090505481565b80600160003373ffffffffffffffffffffffffffffffffffffffff1673ffffffffffffffffffffffffffffffffffffffff168152602001908152602001600020541161025e576040517f08c379a000000000000000000000000000000000000000000000000000000000815260040161025590611152565b60405180910390fd5b6000600160003373ffffffffffffffffffffffffffffffffffffffff1673ffffffffffffffffffffffffffffffffffffffff1681526020019081526020016000205490506000600260003373ffffffffffffffffffffffffffffffffffffffff1673ffffffffffffffffffffffffffffffffffffffff16815260200190815260200160002054426102ef91906111a1565b90506000662386f26fc10000836103069190611204565b6301e337316103159190611235565b9050600082826103259190611235565b90508573ffffffffffffffffffffffffffffffffffffffff166108fc869081150290604051600060405180830381858888f1935050505015801561036d573d6000803e3d6000fd5b5060008054906101000a900473ffffffffffffffffffffffffffffffffffffffff1673ffffffffffffffffffffffffffffffffffffffff166340c10f1933836040518363ffffffff1660e01b81526004016103c992919061129e565b600060405180830381600087803b1580156103e357600080fd5b505af11580156103f7573d6000803e3d6000fd5b5050505080600460003373ffffffffffffffffffffffffffffffffffffffff1673ffffffffffffffffffffffffffffffffffffffff1681526020019081526020016000205461044691906112c7565b600460003373ffffffffffffffffffffffffffffffffffffffff1673ffffffffffffffffffffffffffffffffffffffff1681526020019081526020016000208190555084600160003373ffffffffffffffffffffffffffffffffffffffff1673ffffffffffffffffffffffffffffffffffffffff168152602001908152602001600020546104d491906111a1565b600160003373ffffffffffffffffffffffffffffffffffffffff1673ffffffffffffffffffffffffffffffffffffffff1681526020019081526020016000208190555042600260003373ffffffffffffffffffffffffffffffffffffffff1673ffffffffffffffffffffffffffffffffffffffff168152602001908152602001600020819055506000600160003373ffffffffffffffffffffffffffffffffffffffff1673ffffffffffffffffffffffffffffffffffffffff168152602001908152602001600020541415600360003373ffffffffffffffffffffffffffffffffffffffff1673ffffffffffffffffffffffffffffffffffffffff16815260200190815260200160002060006101000a81548160ff0219169083151502179055503373ffffffffffffffffffffffffffffffffffffffff167fc817d75deaa278e988c41cf549ef38fe195ab65e0e64cd67ba47f0d185690d5887878442604051610641949392919061131d565b60405180910390a2505050505050565b6000600160003373ffffffffffffffffffffffffffffffffffffffff1673ffffffffffffffffffffffffffffffffffffffff16815260200190815260200160002054905060011515600360003373ffffffffffffffffffffffffffffffffffffffff1673ffffffffffffffffffffffffffffffffffffffff16815260200190815260200160002060009054906101000a900460ff16151514610728576040517f08c379a000000000000000000000000000000000000000000000000000000000815260040161071f906113ae565b60405180910390fd5b8082111561076b576040517f08c379a000000000000000000000000000000000000000000000000000000000815260040161076290611152565b60405180910390fd5b6000600260003373ffffffffffffffffffffffffffffffffffffffff1673ffffffffffffffffffffffffffffffffffffffff16815260200190815260200160002054426107b891906111a1565b90506000662386f26fc10000836107cf9190611204565b6301e337316107de9190611235565b9050600082826107ee9190611235565b90503373ffffffffffffffffffffffffffffffffffffffff166108fc869081150290604051600060405180830381858888f19350505050158015610836573d6000803e3d6000fd5b50848461084391906111a1565b600160003373ffffffffffffffffffffffffffffffffffffffff1673ffffffffffffffffffffffffffffffffffffffff168152602001908152602001600020819055506000600160003373ffffffffffffffffffffffffffffffffffffffff1673ffffffffffffffffffffffffffffffffffffffff1681526020019081526020016000205403610917576000600260003373ffffffffffffffffffffffffffffffffffffffff1673ffffffffffffffffffffffffffffffffffffffff1681526020019081526020016000208190555061095c565b42600260003373ffffffffffffffffffffffffffffffffffffffff1673ffffffffffffffffffffffffffffffffffffffff168152602001908152602001600020819055505b6000600160003373ffffffffffffffffffffffffffffffffffffffff1673ffffffffffffffffffffffffffffffffffffffff168152602001908152602001600020541415600360003373ffffffffffffffffffffffffffffffffffffffff1673ffffffffffffffffffffffffffffffffffffffff16815260200190815260200160002060006101000a81548160ff02191690831515021790555060008054906101000a900473ffffffffffffffffffffffffffffffffffffffff1673ffffffffffffffffffffffffffffffffffffffff166340c10f1933836040518363ffffffff1660e01b8152600401610a5192919061129e565b600060405180830381600087803b158015610a6b57600080fd5b505af1158015610a7f573d6000803e3d6000fd5b5050505080600460003373ffffffffffffffffffffffffffffffffffffffff1673ffffffffffffffffffffffffffffffffffffffff16815260200190815260200160002054610ace91906112c7565b600460003373ffffffffffffffffffffffffffffffffffffffff1673ffffffffffffffffffffffffffffffffffffffff168152602001908152602001600020819055503373ffffffffffffffffffffffffffffffffffffffff167f02f25270a4d87bea75db541cdfe559334a275b4a233520ed6c0a2429667cca94858342604051610b5b939291906113ce565b60405180910390a25050505050565b60016020528060005260406000206000915090505481565b60046020528060005260406000206000915090505481565b60036020528060005260406000206000915054906101000a900460ff1681565b662386f26fc10000341015610c04576040517f08c379a0000000000000000000000000000000000000000000000000000000008152600401610bfb90611477565b60405180910390fd5b6000600260003373ffffffffffffffffffffffffffffffffffffffff1673ffffffffffffffffffffffffffffffffffffffff1681526020019081526020016000205442610c5191906111a1565b90506000662386f26fc10000600160003373ffffffffffffffffffffffffffffffffffffffff1673ffffffffffffffffffffffffffffffffffffffff16815260200190815260200160002054610ca79190611204565b6301e33731610cb69190611235565b905060008282610cc69190611235565b905060008054906101000a900473ffffffffffffffffffffffffffffffffffffffff1673ffffffffffffffffffffffffffffffffffffffff166340c10f1933836040518363ffffffff1660e01b8152600401610d2392919061129e565b600060405180830381600087803b158015610d3d57600080fd5b505af1158015610d51573d6000803e3d6000fd5b5050505080600460003373ffffffffffffffffffffffffffffffffffffffff1673ffffffffffffffffffffffffffffffffffffffff16815260200190815260200160002054610da091906112c7565b600460003373ffffffffffffffffffffffffffffffffffffffff1673ffffffffffffffffffffffffffffffffffffffff1681526020019081526020016000208190555034600160003373ffffffffffffffffffffffffffffffffffffffff1673ffffffffffffffffffffffffffffffffffffffff16815260200190815260200160002054610e2e91906112c7565b600160003373ffffffffffffffffffffffffffffffffffffffff1673ffffffffffffffffffffffffffffffffffffffff1681526020019081526020016000208190555042600260003373ffffffffffffffffffffffffffffffffffffffff1673ffffffffffffffffffffffffffffffffffffffff168152602001908152602001600020819055506001600360003373ffffffffffffffffffffffffffffffffffffffff1673ffffffffffffffffffffffffffffffffffffffff16815260200190815260200160002060006101000a81548160ff0219169083151502179055503373ffffffffffffffffffffffffffffffffffffffff167f90890809c654f11d6e72a28fa60149770a0d11ec6c92319d6ceb2bb0a4ea1a153442604051610f55929190611497565b60405180910390a2505050565b600080fd5b600073ffffffffffffffffffffffffffffffffffffffff82169050919050565b6000610f9282610f67565b9050919050565b610fa281610f87565b8114610fad57600080fd5b50565b600081359050610fbf81610f99565b92915050565b600060208284031215610fdb57610fda610f62565b5b6000610fe984828501610fb0565b91505092915050565b6000819050919050565b61100581610ff2565b82525050565b60006020820190506110206000830184610ffc565b92915050565b61102f81610ff2565b811461103a57600080fd5b50565b60008135905061104c81611026565b92915050565b6000806040838503121561106957611068610f62565b5b600061107785828601610fb0565b92505060206110888582860161103d565b9150509250929050565b6000602082840312156110a8576110a7610f62565b5b60006110b68482850161103d565b91505092915050565b60008115159050919050565b6110d4816110bf565b82525050565b60006020820190506110ef60008301846110cb565b92915050565b600082825260208201905092915050565b7f4572726f723a20496e73756666696369656e742062616c616e63652e00000000600082015250565b600061113c601c836110f5565b915061114782611106565b602082019050919050565b6000602082019050818103600083015261116b8161112f565b9050919050565b7f4e487b7100000000000000000000000000000000000000000000000000000000600052601160045260246000fd5b60006111ac82610ff2565b91506111b783610ff2565b9250828210156111ca576111c9611172565b5b828203905092915050565b7f4e487b7100000000000000000000000000000000000000000000000000000000600052601260045260246000fd5b600061120f82610ff2565b915061121a83610ff2565b92508261122a576112296111d5565b5b828204905092915050565b600061124082610ff2565b915061124b83610ff2565b9250817fffffffffffffffffffffffffffffffffffffffffffffffffffffffffffffffff048311821515161561128457611283611172565b5b828202905092915050565b61129881610f87565b82525050565b60006040820190506112b3600083018561128f565b6112c06020830184610ffc565b9392505050565b60006112d282610ff2565b91506112dd83610ff2565b9250827fffffffffffffffffffffffffffffffffffffffffffffffffffffffffffffffff0382111561131257611311611172565b5b828201905092915050565b6000608082019050611332600083018761128f565b61133f6020830186610ffc565b61134c6040830185610ffc565b6113596060830184610ffc565b95945050505050565b7f4572726f723a204e6f2070726576696f7573206465706f7369742e0000000000600082015250565b6000611398601b836110f5565b91506113a382611362565b602082019050919050565b600060208201905081810360008301526113c78161138b565b9050919050565b60006060820190506113e36000830186610ffc565b6113f06020830185610ffc565b6113fd6040830184610ffc565b949350505050565b7f4572726f723a204d696e696d756d206465706f736974206f6620302e3120455460008201527f482069732072657175697265642e000000000000000000000000000000000000602082015250565b6000611461602e836110f5565b915061146c82611405565b604082019050919050565b6000602082019050818103600083015261149081611454565b9050919050565b60006040820190506114ac6000830185610ffc565b6114b96020830184610ffc565b939250505056fea264697066735822122089ae059c292ae5943d9689d8d904662a1035c8fcc1a2b5414174beb678c28a2f64736f6c634300080f0033",
  "immutableReferences": {},
  "source": "// SPDX-License-Identifier: MIT\npragma solidity >=0.8.15;\n\nimport \"./DCBToken.sol\";\n\ncontract DBank {\n    DCBToken private token;\n\n    mapping(address => uint256) public depositedEther;\n    mapping(address => uint256) public depositedAt;\n    mapping(address => bool) public isDeposited;\n    mapping(address => uint256) public interestPaid;\n\n    event Deposit(\n        address indexed user,\n        uint256 etherAmount,\n        uint256 depositTime\n    );\n\n    event Withdraw(\n        address indexed user,\n        uint256 etherAmountPayed,\n        uint256 interestPayed,\n        uint256 withdrawalTime\n    );\n\n    event Transfer(\n        address indexed user,\n        address transferredTo,\n        uint256 etherAmountTransfered,\n        uint256 interestPayed,\n        uint256 transferredAt\n    );\n\n    constructor(DCBToken _token) {\n        token = _token;\n    }\n\n    function deposit() public payable {\n        require(\n            msg.value >= 1e16,\n            \"Error: Minimum deposit of 0.1 ETH is required.\"\n        );\n\n        uint256 depositedFor = block.timestamp - depositedAt[msg.sender];\n\n        uint256 interestPerSecond = 31668017 *\n            (depositedEther[msg.sender] / 1e16);\n        uint256 interestToPay = interestPerSecond * depositedFor;\n\n        token.mint(msg.sender, interestToPay);\n        interestPaid[msg.sender] = interestPaid[msg.sender] + interestToPay;\n\n        depositedEther[msg.sender] = depositedEther[msg.sender] + msg.value;\n        depositedAt[msg.sender] = block.timestamp;\n        isDeposited[msg.sender] = true;\n\n        emit Deposit(msg.sender, msg.value, block.timestamp);\n    }\n\n    function withdraw(uint256 amount) public {\n        uint256 userBalance = depositedEther[msg.sender];\n\n        require(isDeposited[msg.sender] == true, \"Error: No previous deposit.\");\n        require(amount <= userBalance, \"Error: Insufficient balance.\");\n\n        uint256 depositedFor = block.timestamp - depositedAt[msg.sender];\n\n        uint256 interestPerSecond = 31668017 * (userBalance / 1e16);\n        uint256 interestToPay = interestPerSecond * depositedFor;\n\n        payable(msg.sender).transfer(amount);\n\n        depositedEther[msg.sender] = userBalance - amount;\n        if (depositedEther[msg.sender] == 0) {\n            depositedAt[msg.sender] = 0;\n        } else {\n            depositedAt[msg.sender] = block.timestamp;\n        }\n        isDeposited[msg.sender] = depositedEther[msg.sender] != 0;\n\n        token.mint(msg.sender, interestToPay);\n        interestPaid[msg.sender] = interestPaid[msg.sender] + interestToPay;\n\n        emit Withdraw(msg.sender, userBalance, interestToPay, block.timestamp);\n    }\n\n    function transferTo(address to, uint256 amount) public {\n        require(\n            depositedEther[msg.sender] > amount,\n            \"Error: Insufficient balance.\"\n        );\n\n        uint256 balanceBeforeTransfer = depositedEther[msg.sender];\n        uint256 depositedFor = block.timestamp - depositedAt[msg.sender];\n\n        uint256 interestPerSecond = 31668017 * (balanceBeforeTransfer / 1e16);\n        uint256 interestToPay = interestPerSecond * depositedFor;\n\n        payable(to).transfer(amount);\n        token.mint(msg.sender, interestToPay);\n        interestPaid[msg.sender] = interestPaid[msg.sender] + interestToPay;\n\n        depositedEther[msg.sender] = depositedEther[msg.sender] - amount;\n        depositedAt[msg.sender] = block.timestamp;\n        isDeposited[msg.sender] = depositedEther[msg.sender] != 0;\n\n        emit Transfer(msg.sender, to, amount, interestToPay, block.timestamp);\n    }\n}\n",
  "sourcePath": "/home/aer/Desktop/web3-test/src/contracts/DBank.sol",
  "compiler": {
    "name": "solc",
    "version": "0.8.15+commit.e14f2714.Emscripten.clang"
  },
  "schemaVersion": "3.4.8",
  "updatedAt": "2022-07-31T17:06:53.066Z",
  "networkType": "ethereum",
  "devdoc": {
    "kind": "dev",
    "methods": {},
    "version": 1
  },
  "userdoc": {
    "kind": "user",
    "methods": {},
    "version": 1
  }
}