{
  "contractName": "DCBToken",
  "abi": [
    {
      "inputs": [],
      "stateMutability": "payable",
      "type": "constructor",
      "payable": true
    },
    {
      "anonymous": false,
      "inputs": [
        {
          "indexed": true,
          "internalType": "address",
          "name": "owner",
          "type": "address"
        },
        {
          "indexed": true,
          "internalType": "address",
          "name": "spender",
          "type": "address"
        },
        {
          "indexed": false,
          "internalType": "uint256",
          "name": "value",
          "type": "uint256"
        }
      ],
      "name": "Approval",
      "type": "event"
    },
    {
      "anonymous": false,
      "inputs": [
        {
          "indexed": true,
          "internalType": "address",
          "name": "from",
          "type": "address"
        },
        {
          "indexed": false,
          "internalType": "address",
          "name": "to",
          "type": "address"
        }
      ],
      "name": "MinterChanged",
      "type": "event"
    },
    {
      "anonymous": false,
      "inputs": [
        {
          "indexed": true,
          "internalType": "address",
          "name": "from",
          "type": "address"
        },
        {
          "indexed": true,
          "internalType": "address",
          "name": "to",
          "type": "address"
        },
        {
          "indexed": false,
          "internalType": "uint256",
          "name": "value",
          "type": "uint256"
        }
      ],
      "name": "Transfer",
      "type": "event"
    },
    {
      "inputs": [
        {
          "internalType": "address",
          "name": "owner",
          "type": "address"
        },
        {
          "internalType": "address",
          "name": "spender",
          "type": "address"
        }
      ],
      "name": "allowance",
      "outputs": [
        {
          "internalType": "uint256",
          "name": "",
          "type": "uint256"
        }
      ],
      "stateMutability": "view",
      "type": "function",
      "constant": true
    },
    {
      "inputs": [
        {
          "internalType": "address",
          "name": "spender",
          "type": "address"
        },
        {
          "internalType": "uint256",
          "name": "amount",
          "type": "uint256"
        }
      ],
      "name": "approve",
      "outputs": [
        {
          "internalType": "bool",
          "name": "",
          "type": "bool"
        }
      ],
      "stateMutability": "nonpayable",
      "type": "function"
    },
    {
      "inputs": [
        {
          "internalType": "address",
          "name": "account",
          "type": "address"
        }
      ],
      "name": "balanceOf",
      "outputs": [
        {
          "internalType": "uint256",
          "name": "",
          "type": "uint256"
        }
      ],
      "stateMutability": "view",
      "type": "function",
      "constant": true
    },
    {
      "inputs": [],
      "name": "decimals",
      "outputs": [
        {
          "internalType": "uint8",
          "name": "",
          "type": "uint8"
        }
      ],
      "stateMutability": "view",
      "type": "function",
      "constant": true
    },
    {
      "inputs": [
        {
          "internalType": "address",
          "name": "spender",
          "type": "address"
        },
        {
          "internalType": "uint256",
          "name": "subtractedValue",
          "type": "uint256"
        }
      ],
      "name": "decreaseAllowance",
      "outputs": [
        {
          "internalType": "bool",
          "name": "",
          "type": "bool"
        }
      ],
      "stateMutability": "nonpayable",
      "type": "function"
    },
    {
      "inputs": [
        {
          "internalType": "address",
          "name": "spender",
          "type": "address"
        },
        {
          "internalType": "uint256",
          "name": "addedValue",
          "type": "uint256"
        }
      ],
      "name": "increaseAllowance",
      "outputs": [
        {
          "internalType": "bool",
          "name": "",
          "type": "bool"
        }
      ],
      "stateMutability": "nonpayable",
      "type": "function"
    },
    {
      "inputs": [],
      "name": "minter",
      "outputs": [
        {
          "internalType": "address",
          "name": "",
          "type": "address"
        }
      ],
      "stateMutability": "view",
      "type": "function",
      "constant": true
    },
    {
      "inputs": [],
      "name": "name",
      "outputs": [
        {
          "internalType": "string",
          "name": "",
          "type": "string"
        }
      ],
      "stateMutability": "view",
      "type": "function",
      "constant": true
    },
    {
      "inputs": [],
      "name": "symbol",
      "outputs": [
        {
          "internalType": "string",
          "name": "",
          "type": "string"
        }
      ],
      "stateMutability": "view",
      "type": "function",
      "constant": true
    },
    {
      "inputs": [],
      "name": "totalSupply",
      "outputs": [
        {
          "internalType": "uint256",
          "name": "",
          "type": "uint256"
        }
      ],
      "stateMutability": "view",
      "type": "function",
      "constant": true
    },
    {
      "inputs": [
        {
          "internalType": "address",
          "name": "to",
          "type": "address"
        },
        {
          "internalType": "uint256",
          "name": "amount",
          "type": "uint256"
        }
      ],
      "name": "transfer",
      "outputs": [
        {
          "internalType": "bool",
          "name": "",
          "type": "bool"
        }
      ],
      "stateMutability": "nonpayable",
      "type": "function"
    },
    {
      "inputs": [
        {
          "internalType": "address",
          "name": "from",
          "type": "address"
        },
        {
          "internalType": "address",
          "name": "to",
          "type": "address"
        },
        {
          "internalType": "uint256",
          "name": "amount",
          "type": "uint256"
        }
      ],
      "name": "transferFrom",
      "outputs": [
        {
          "internalType": "bool",
          "name": "",
          "type": "bool"
        }
      ],
      "stateMutability": "nonpayable",
      "type": "function"
    },
    {
      "inputs": [
        {
          "internalType": "address",
          "name": "dBank",
          "type": "address"
        }
      ],
      "name": "changeMinter",
      "outputs": [
        {
          "internalType": "bool",
          "name": "",
          "type": "bool"
        }
      ],
      "stateMutability": "nonpayable",
      "type": "function"
    },
    {
      "inputs": [
        {
          "internalType": "address",
          "name": "account",
          "type": "address"
        },
        {
          "internalType": "uint256",
          "name": "amount",
          "type": "uint256"
        }
      ],
      "name": "mint",
      "outputs": [],
      "stateMutability": "nonpayable",
      "type": "function"
    }
  ],
  "bytecode": "0x60806040526040518060400160405280601b81526020017f446563656e7472616c697a65642042616e6b2043757272656e637900000000008152506040518060400160405280600381526020017f4442430000000000000000000000000000000000000000000000000000000000815250816003908162000081919062000357565b50806004908162000093919062000357565b50505033600560006101000a81548173ffffffffffffffffffffffffffffffffffffffff021916908373ffffffffffffffffffffffffffffffffffffffff1602179055506200043e565b600081519050919050565b7f4e487b7100000000000000000000000000000000000000000000000000000000600052604160045260246000fd5b7f4e487b7100000000000000000000000000000000000000000000000000000000600052602260045260246000fd5b600060028204905060018216806200015f57607f821691505b60208210810362000175576200017462000117565b5b50919050565b60008190508160005260206000209050919050565b60006020601f8301049050919050565b600082821b905092915050565b600060088302620001df7fffffffffffffffffffffffffffffffffffffffffffffffffffffffffffffffff82620001a0565b620001eb8683620001a0565b95508019841693508086168417925050509392505050565b6000819050919050565b6000819050919050565b600062000238620002326200022c8462000203565b6200020d565b62000203565b9050919050565b6000819050919050565b620002548362000217565b6200026c62000263826200023f565b848454620001ad565b825550505050565b600090565b6200028362000274565b6200029081848462000249565b505050565b5b81811015620002b857620002ac60008262000279565b60018101905062000296565b5050565b601f8211156200030757620002d1816200017b565b620002dc8462000190565b81016020851015620002ec578190505b62000304620002fb8562000190565b83018262000295565b50505b505050565b600082821c905092915050565b60006200032c600019846008026200030c565b1980831691505092915050565b600062000347838362000319565b9150826002028217905092915050565b6200036282620000dd565b67ffffffffffffffff8111156200037e576200037d620000e8565b5b6200038a825462000146565b62000397828285620002bc565b600060209050601f831160018114620003cf5760008415620003ba578287015190505b620003c6858262000339565b86555062000436565b601f198416620003df866200017b565b60005b828110156200040957848901518255600182019150602085019450602081019050620003e2565b8683101562000429578489015162000425601f89168262000319565b8355505b6001600288020188555050505b505050505050565b611815806200044e6000396000f3fe608060405234801561001057600080fd5b50600436106100ea5760003560e01c8063395093511161008c57806395d89b411161006657806395d89b4114610273578063a457c2d714610291578063a9059cbb146102c1578063dd62ed3e146102f1576100ea565b806339509351146101f757806340c10f191461022757806370a0823114610243576100ea565b806318160ddd116100c857806318160ddd1461015b57806323b872dd146101795780632c4d4d18146101a9578063313ce567146101d9576100ea565b806306fdde03146100ef578063075461721461010d578063095ea7b31461012b575b600080fd5b6100f7610321565b6040516101049190610f16565b60405180910390f35b6101156103b3565b6040516101229190610f79565b60405180910390f35b61014560048036038101906101409190610ffb565b6103d9565b6040516101529190611056565b60405180910390f35b6101636103fc565b6040516101709190611080565b60405180910390f35b610193600480360381019061018e919061109b565b610406565b6040516101a09190611056565b60405180910390f35b6101c360048036038101906101be91906110ee565b610435565b6040516101d09190611056565b60405180910390f35b6101e161055f565b6040516101ee9190611137565b60405180910390f35b610211600480360381019061020c9190610ffb565b610568565b60405161021e9190611056565b60405180910390f35b610241600480360381019061023c9190610ffb565b61059f565b005b61025d600480360381019061025891906110ee565b61063d565b60405161026a9190611080565b60405180910390f35b61027b610685565b6040516102889190610f16565b60405180910390f35b6102ab60048036038101906102a69190610ffb565b610717565b6040516102b89190611056565b60405180910390f35b6102db60048036038101906102d69190610ffb565b61078e565b6040516102e89190611056565b60405180910390f35b61030b60048036038101906103069190611152565b6107b1565b6040516103189190611080565b60405180910390f35b606060038054610330906111c1565b80601f016020809104026020016040519081016040528092919081815260200182805461035c906111c1565b80156103a95780601f1061037e576101008083540402835291602001916103a9565b820191906000526020600020905b81548152906001019060200180831161038c57829003601f168201915b5050505050905090565b600560009054906101000a900473ffffffffffffffffffffffffffffffffffffffff1681565b6000806103e4610838565b90506103f1818585610840565b600191505092915050565b6000600254905090565b600080610411610838565b905061041e858285610a09565b610429858585610a95565b60019150509392505050565b6000600560009054906101000a900473ffffffffffffffffffffffffffffffffffffffff1673ffffffffffffffffffffffffffffffffffffffff163373ffffffffffffffffffffffffffffffffffffffff16146104c7576040517f08c379a00000000000000000000000000000000000000000000000000000000081526004016104be90611264565b60405180910390fd5b81600560006101000a81548173ffffffffffffffffffffffffffffffffffffffff021916908373ffffffffffffffffffffffffffffffffffffffff1602179055503373ffffffffffffffffffffffffffffffffffffffff167f3b0007eb941cf645526cbb3a4fdaecda9d28ce4843167d9263b536a1f1edc0f68360405161054e9190610f79565b60405180910390a260019050919050565b60006012905090565b600080610573610838565b905061059481858561058585896107b1565b61058f91906112b3565b610840565b600191505092915050565b600560009054906101000a900473ffffffffffffffffffffffffffffffffffffffff1673ffffffffffffffffffffffffffffffffffffffff163373ffffffffffffffffffffffffffffffffffffffff161461062f576040517f08c379a00000000000000000000000000000000000000000000000000000000081526004016106269061137b565b60405180910390fd5b6106398282610d14565b5050565b60008060008373ffffffffffffffffffffffffffffffffffffffff1673ffffffffffffffffffffffffffffffffffffffff168152602001908152602001600020549050919050565b606060048054610694906111c1565b80601f01602080910402602001604051908101604052809291908181526020018280546106c0906111c1565b801561070d5780601f106106e25761010080835404028352916020019161070d565b820191906000526020600020905b8154815290600101906020018083116106f057829003601f168201915b5050505050905090565b600080610722610838565b9050600061073082866107b1565b905083811015610775576040517f08c379a000000000000000000000000000000000000000000000000000000000815260040161076c9061140d565b60405180910390fd5b6107828286868403610840565b60019250505092915050565b600080610799610838565b90506107a6818585610a95565b600191505092915050565b6000600160008473ffffffffffffffffffffffffffffffffffffffff1673ffffffffffffffffffffffffffffffffffffffff16815260200190815260200160002060008373ffffffffffffffffffffffffffffffffffffffff1673ffffffffffffffffffffffffffffffffffffffff16815260200190815260200160002054905092915050565b600033905090565b600073ffffffffffffffffffffffffffffffffffffffff168373ffffffffffffffffffffffffffffffffffffffff16036108af576040517f08c379a00000000000000000000000000000000000000000000000000000000081526004016108a69061149f565b60405180910390fd5b600073ffffffffffffffffffffffffffffffffffffffff168273ffffffffffffffffffffffffffffffffffffffff160361091e576040517f08c379a000000000000000000000000000000000000000000000000000000000815260040161091590611531565b60405180910390fd5b80600160008573ffffffffffffffffffffffffffffffffffffffff1673ffffffffffffffffffffffffffffffffffffffff16815260200190815260200160002060008473ffffffffffffffffffffffffffffffffffffffff1673ffffffffffffffffffffffffffffffffffffffff168152602001908152602001600020819055508173ffffffffffffffffffffffffffffffffffffffff168373ffffffffffffffffffffffffffffffffffffffff167f8c5be1e5ebec7d5bd14f71427d1e84f3dd0314c0f7b2291e5b200ac8c7c3b925836040516109fc9190611080565b60405180910390a3505050565b6000610a1584846107b1565b90507fffffffffffffffffffffffffffffffffffffffffffffffffffffffffffffffff8114610a8f5781811015610a81576040517f08c379a0000000000000000000000000000000000000000000000000000000008152600401610a789061159d565b60405180910390fd5b610a8e8484848403610840565b5b50505050565b600073ffffffffffffffffffffffffffffffffffffffff168373ffffffffffffffffffffffffffffffffffffffff1603610b04576040517f08c379a0000000000000000000000000000000000000000000000000000000008152600401610afb9061162f565b60405180910390fd5b600073ffffffffffffffffffffffffffffffffffffffff168273ffffffffffffffffffffffffffffffffffffffff1603610b73576040517f08c379a0000000000000000000000000000000000000000000000000000000008152600401610b6a906116c1565b60405180910390fd5b610b7e838383610e73565b60008060008573ffffffffffffffffffffffffffffffffffffffff1673ffffffffffffffffffffffffffffffffffffffff16815260200190815260200160002054905081811015610c04576040517f08c379a0000000000000000000000000000000000000000000000000000000008152600401610bfb90611753565b60405180910390fd5b8181036000808673ffffffffffffffffffffffffffffffffffffffff1673ffffffffffffffffffffffffffffffffffffffff16815260200190815260200160002081905550816000808573ffffffffffffffffffffffffffffffffffffffff1673ffffffffffffffffffffffffffffffffffffffff1681526020019081526020016000206000828254610c9791906112b3565b925050819055508273ffffffffffffffffffffffffffffffffffffffff168473ffffffffffffffffffffffffffffffffffffffff167fddf252ad1be2c89b69c2b068fc378daa952ba7f163c4a11628f55a4df523b3ef84604051610cfb9190611080565b60405180910390a3610d0e848484610e78565b50505050565b600073ffffffffffffffffffffffffffffffffffffffff168273ffffffffffffffffffffffffffffffffffffffff1603610d83576040517f08c379a0000000000000000000000000000000000000000000000000000000008152600401610d7a906117bf565b60405180910390fd5b610d8f60008383610e73565b8060026000828254610da191906112b3565b92505081905550806000808473ffffffffffffffffffffffffffffffffffffffff1673ffffffffffffffffffffffffffffffffffffffff1681526020019081526020016000206000828254610df691906112b3565b925050819055508173ffffffffffffffffffffffffffffffffffffffff16600073ffffffffffffffffffffffffffffffffffffffff167fddf252ad1be2c89b69c2b068fc378daa952ba7f163c4a11628f55a4df523b3ef83604051610e5b9190611080565b60405180910390a3610e6f60008383610e78565b5050565b505050565b505050565b600081519050919050565b600082825260208201905092915050565b60005b83811015610eb7578082015181840152602081019050610e9c565b83811115610ec6576000848401525b50505050565b6000601f19601f8301169050919050565b6000610ee882610e7d565b610ef28185610e88565b9350610f02818560208601610e99565b610f0b81610ecc565b840191505092915050565b60006020820190508181036000830152610f308184610edd565b905092915050565b600073ffffffffffffffffffffffffffffffffffffffff82169050919050565b6000610f6382610f38565b9050919050565b610f7381610f58565b82525050565b6000602082019050610f8e6000830184610f6a565b92915050565b600080fd5b610fa281610f58565b8114610fad57600080fd5b50565b600081359050610fbf81610f99565b92915050565b6000819050919050565b610fd881610fc5565b8114610fe357600080fd5b50565b600081359050610ff581610fcf565b92915050565b6000806040838503121561101257611011610f94565b5b600061102085828601610fb0565b925050602061103185828601610fe6565b9150509250929050565b60008115159050919050565b6110508161103b565b82525050565b600060208201905061106b6000830184611047565b92915050565b61107a81610fc5565b82525050565b60006020820190506110956000830184611071565b92915050565b6000806000606084860312156110b4576110b3610f94565b5b60006110c286828701610fb0565b93505060206110d386828701610fb0565b92505060406110e486828701610fe6565b9150509250925092565b60006020828403121561110457611103610f94565b5b600061111284828501610fb0565b91505092915050565b600060ff82169050919050565b6111318161111b565b82525050565b600060208201905061114c6000830184611128565b92915050565b6000806040838503121561116957611168610f94565b5b600061117785828601610fb0565b925050602061118885828601610fb0565b9150509250929050565b7f4e487b7100000000000000000000000000000000000000000000000000000000600052602260045260246000fd5b600060028204905060018216806111d957607f821691505b6020821081036111ec576111eb611192565b5b50919050565b7f4572726f723a204f6e6c7920746865206f776e65722063616e206368616e676560008201527f206d696e74657220726f6c652e00000000000000000000000000000000000000602082015250565b600061124e602d83610e88565b9150611259826111f2565b604082019050919050565b6000602082019050818103600083015261127d81611241565b9050919050565b7f4e487b7100000000000000000000000000000000000000000000000000000000600052601160045260246000fd5b60006112be82610fc5565b91506112c983610fc5565b9250827fffffffffffffffffffffffffffffffffffffffffffffffffffffffffffffffff038211156112fe576112fd611284565b5b828201905092915050565b7f4572726f723a206d73672e73656e64657220646f65736e27742068617665207460008201527f6865206d696e74657220726f6c652e0000000000000000000000000000000000602082015250565b6000611365602f83610e88565b915061137082611309565b604082019050919050565b6000602082019050818103600083015261139481611358565b9050919050565b7f45524332303a2064656372656173656420616c6c6f77616e63652062656c6f7760008201527f207a65726f000000000000000000000000000000000000000000000000000000602082015250565b60006113f7602583610e88565b91506114028261139b565b604082019050919050565b60006020820190508181036000830152611426816113ea565b9050919050565b7f45524332303a20617070726f76652066726f6d20746865207a65726f2061646460008201527f7265737300000000000000000000000000000000000000000000000000000000602082015250565b6000611489602483610e88565b91506114948261142d565b604082019050919050565b600060208201905081810360008301526114b88161147c565b9050919050565b7f45524332303a20617070726f766520746f20746865207a65726f20616464726560008201527f7373000000000000000000000000000000000000000000000000000000000000602082015250565b600061151b602283610e88565b9150611526826114bf565b604082019050919050565b6000602082019050818103600083015261154a8161150e565b9050919050565b7f45524332303a20696e73756666696369656e7420616c6c6f77616e6365000000600082015250565b6000611587601d83610e88565b915061159282611551565b602082019050919050565b600060208201905081810360008301526115b68161157a565b9050919050565b7f45524332303a207472616e736665722066726f6d20746865207a65726f20616460008201527f6472657373000000000000000000000000000000000000000000000000000000602082015250565b6000611619602583610e88565b9150611624826115bd565b604082019050919050565b600060208201905081810360008301526116488161160c565b9050919050565b7f45524332303a207472616e7366657220746f20746865207a65726f206164647260008201527f6573730000000000000000000000000000000000000000000000000000000000602082015250565b60006116ab602383610e88565b91506116b68261164f565b604082019050919050565b600060208201905081810360008301526116da8161169e565b9050919050565b7f45524332303a207472616e7366657220616d6f756e742065786365656473206260008201527f616c616e63650000000000000000000000000000000000000000000000000000602082015250565b600061173d602683610e88565b9150611748826116e1565b604082019050919050565b6000602082019050818103600083015261176c81611730565b9050919050565b7f45524332303a206d696e7420746f20746865207a65726f206164647265737300600082015250565b60006117a9601f83610e88565b91506117b482611773565b602082019050919050565b600060208201905081810360008301526117d88161179c565b905091905056fea2646970667358221220366062ab28672cf7fddc72d75cbad67d0995219256f019b488dacee7b75c0ec064736f6c634300080f0033",
  "immutableReferences": {},
  "source": "// SPDX-License-Identifier: MIT\npragma solidity >=0.8.15;\n\nimport \"@openzeppelin/contracts/token/ERC20/ERC20.sol\";\n\ncontract DCBToken is ERC20 {\n    address public minter;\n\n    // This event fires when the changeMinter function is called, and it can be listened on to from the frontend.\n    event MinterChanged(address indexed from, address to);\n\n    constructor() payable ERC20(\"Decentralized Bank Currency\", \"DBC\") {\n        minter = msg.sender;\n    }\n\n    function changeMinter(address dBank) public returns (bool) {\n        require(\n            msg.sender == minter,\n            \"Error: Only the owner can change minter role.\"\n        );\n        minter = dBank;\n\n        emit MinterChanged(msg.sender, dBank);\n        return true;\n    }\n\n    function mint(address account, uint256 amount) public {\n        require(\n            msg.sender == minter,\n            \"Error: msg.sender doesn't have the minter role.\"\n        );\n\n        _mint(account, amount);\n    }\n}\n",
  "sourcePath": "/home/aer/Desktop/web3-test/src/contracts/DCBToken.sol",
  "compiler": {
    "name": "solc",
    "version": "0.8.15+commit.e14f2714.Emscripten.clang"
  },
  "schemaVersion": "3.4.8",
  "updatedAt": "2022-07-31T17:06:53.054Z",
  "networkType": "ethereum",
  "devdoc": {
    "kind": "dev",
    "methods": {
      "allowance(address,address)": {
        "details": "See {IERC20-allowance}."
      },
      "approve(address,uint256)": {
        "details": "See {IERC20-approve}. NOTE: If `amount` is the maximum `uint256`, the allowance is not updated on `transferFrom`. This is semantically equivalent to an infinite approval. Requirements: - `spender` cannot be the zero address."
      },
      "balanceOf(address)": {
        "details": "See {IERC20-balanceOf}."
      },
      "decimals()": {
        "details": "Returns the number of decimals used to get its user representation. For example, if `decimals` equals `2`, a balance of `505` tokens should be displayed to a user as `5.05` (`505 / 10 ** 2`). Tokens usually opt for a value of 18, imitating the relationship between Ether and Wei. This is the value {ERC20} uses, unless this function is overridden; NOTE: This information is only used for _display_ purposes: it in no way affects any of the arithmetic of the contract, including {IERC20-balanceOf} and {IERC20-transfer}."
      },
      "decreaseAllowance(address,uint256)": {
        "details": "Atomically decreases the allowance granted to `spender` by the caller. This is an alternative to {approve} that can be used as a mitigation for problems described in {IERC20-approve}. Emits an {Approval} event indicating the updated allowance. Requirements: - `spender` cannot be the zero address. - `spender` must have allowance for the caller of at least `subtractedValue`."
      },
      "increaseAllowance(address,uint256)": {
        "details": "Atomically increases the allowance granted to `spender` by the caller. This is an alternative to {approve} that can be used as a mitigation for problems described in {IERC20-approve}. Emits an {Approval} event indicating the updated allowance. Requirements: - `spender` cannot be the zero address."
      },
      "name()": {
        "details": "Returns the name of the token."
      },
      "symbol()": {
        "details": "Returns the symbol of the token, usually a shorter version of the name."
      },
      "totalSupply()": {
        "details": "See {IERC20-totalSupply}."
      },
      "transfer(address,uint256)": {
        "details": "See {IERC20-transfer}. Requirements: - `to` cannot be the zero address. - the caller must have a balance of at least `amount`."
      },
      "transferFrom(address,address,uint256)": {
        "details": "See {IERC20-transferFrom}. Emits an {Approval} event indicating the updated allowance. This is not required by the EIP. See the note at the beginning of {ERC20}. NOTE: Does not update the allowance if the current allowance is the maximum `uint256`. Requirements: - `from` and `to` cannot be the zero address. - `from` must have a balance of at least `amount`. - the caller must have allowance for ``from``'s tokens of at least `amount`."
      }
    },
    "version": 1
  },
  "userdoc": {
    "kind": "user",
    "methods": {},
    "version": 1
  }
}